{
  "contractName": "Adoptables",
  "abi": [
    {
      "inputs": [
        {
          "internalType": "string",
          "name": "name",
          "type": "string"
        },
        {
          "internalType": "string",
          "name": "symbol",
          "type": "string"
        }
      ],
      "stateMutability": "nonpayable",
      "type": "constructor"
    },
    {
      "anonymous": false,
      "inputs": [
        {
          "indexed": true,
          "internalType": "address",
          "name": "_owner",
          "type": "address"
        },
        {
          "indexed": true,
          "internalType": "address",
          "name": "_approved",
          "type": "address"
        },
        {
          "indexed": true,
          "internalType": "uint256",
          "name": "_tokenId",
          "type": "uint256"
        }
      ],
      "name": "Approval",
      "type": "event"
    },
    {
      "anonymous": false,
      "inputs": [
        {
          "indexed": true,
          "internalType": "address",
          "name": "_owner",
          "type": "address"
        },
        {
          "indexed": true,
          "internalType": "address",
          "name": "_operator",
          "type": "address"
        },
        {
          "indexed": false,
          "internalType": "bool",
          "name": "_approved",
          "type": "bool"
        }
      ],
      "name": "ApprovalForAll",
      "type": "event"
    },
    {
      "anonymous": false,
      "inputs": [
        {
          "indexed": true,
          "internalType": "address",
          "name": "_from",
          "type": "address"
        },
        {
          "indexed": true,
          "internalType": "address",
          "name": "_to",
          "type": "address"
        },
        {
          "indexed": true,
          "internalType": "uint256",
          "name": "_tokenId",
          "type": "uint256"
        }
      ],
      "name": "Transfer",
      "type": "event"
    },
    {
      "inputs": [
        {
          "internalType": "address",
          "name": "to",
          "type": "address"
        },
        {
          "internalType": "uint256",
          "name": "tokenId",
          "type": "uint256"
        }
      ],
      "name": "approve",
      "outputs": [],
      "stateMutability": "payable",
      "type": "function"
    },
    {
      "inputs": [
        {
          "internalType": "address",
          "name": "owner",
          "type": "address"
        }
      ],
      "name": "balanceOf",
      "outputs": [
        {
          "internalType": "uint256",
          "name": "",
          "type": "uint256"
        }
      ],
      "stateMutability": "view",
      "type": "function"
    },
    {
      "inputs": [
        {
          "internalType": "uint256",
          "name": "tokenId",
          "type": "uint256"
        }
      ],
      "name": "getApproved",
      "outputs": [
        {
          "internalType": "address",
          "name": "",
          "type": "address"
        }
      ],
      "stateMutability": "view",
      "type": "function"
    },
    {
      "inputs": [
        {
          "internalType": "address",
          "name": "owner",
          "type": "address"
        },
        {
          "internalType": "address",
          "name": "operator",
          "type": "address"
        }
      ],
      "name": "isApprovedForAll",
      "outputs": [
        {
          "internalType": "bool",
          "name": "",
          "type": "bool"
        }
      ],
      "stateMutability": "view",
      "type": "function"
    },
    {
      "inputs": [],
      "name": "name",
      "outputs": [
        {
          "internalType": "string",
          "name": "",
          "type": "string"
        }
      ],
      "stateMutability": "view",
      "type": "function"
    },
    {
      "inputs": [
        {
          "internalType": "uint256",
          "name": "tokenId",
          "type": "uint256"
        }
      ],
      "name": "ownerOf",
      "outputs": [
        {
          "internalType": "address",
          "name": "",
          "type": "address"
        }
      ],
      "stateMutability": "view",
      "type": "function"
    },
    {
      "inputs": [
        {
          "internalType": "address",
          "name": "from",
          "type": "address"
        },
        {
          "internalType": "address",
          "name": "to",
          "type": "address"
        },
        {
          "internalType": "uint256",
          "name": "tokenId",
          "type": "uint256"
        }
      ],
      "name": "safeTransferFrom",
      "outputs": [],
      "stateMutability": "payable",
      "type": "function"
    },
    {
      "inputs": [
        {
          "internalType": "address",
          "name": "from",
          "type": "address"
        },
        {
          "internalType": "address",
          "name": "to",
          "type": "address"
        },
        {
          "internalType": "uint256",
          "name": "tokenId",
          "type": "uint256"
        },
        {
          "internalType": "bytes",
          "name": "data",
          "type": "bytes"
        }
      ],
      "name": "safeTransferFrom",
      "outputs": [],
      "stateMutability": "payable",
      "type": "function"
    },
    {
      "inputs": [
        {
          "internalType": "address",
          "name": "operator",
          "type": "address"
        },
        {
          "internalType": "bool",
          "name": "approved",
          "type": "bool"
        }
      ],
      "name": "setApprovalForAll",
      "outputs": [],
      "stateMutability": "nonpayable",
      "type": "function"
    },
    {
      "inputs": [
        {
          "internalType": "bytes4",
          "name": "interfaceID",
          "type": "bytes4"
        }
      ],
      "name": "supportsInterface",
      "outputs": [
        {
          "internalType": "bool",
          "name": "",
          "type": "bool"
        }
      ],
      "stateMutability": "view",
      "type": "function"
    },
    {
      "inputs": [],
      "name": "symbol",
      "outputs": [
        {
          "internalType": "string",
          "name": "",
          "type": "string"
        }
      ],
      "stateMutability": "view",
      "type": "function"
    },
    {
      "inputs": [
        {
          "internalType": "uint256",
          "name": "tokenId",
          "type": "uint256"
        }
      ],
      "name": "tokenURI",
      "outputs": [
        {
          "internalType": "string",
          "name": "",
          "type": "string"
        }
      ],
      "stateMutability": "view",
      "type": "function"
    },
    {
      "inputs": [
        {
          "internalType": "address",
          "name": "from",
          "type": "address"
        },
        {
          "internalType": "address",
          "name": "to",
          "type": "address"
        },
        {
          "internalType": "uint256",
          "name": "tokenId",
          "type": "uint256"
        }
      ],
      "name": "transferFrom",
      "outputs": [],
      "stateMutability": "payable",
      "type": "function"
    },
    {
      "inputs": [
        {
          "internalType": "address",
          "name": "to",
          "type": "address"
        },
        {
          "internalType": "string",
          "name": "IPFSAssetHash",
          "type": "string"
        }
      ],
      "name": "vend",
      "outputs": [
        {
          "internalType": "uint256",
          "name": "",
          "type": "uint256"
        }
      ],
      "stateMutability": "payable",
      "type": "function"
    }
  ],
  "bytecode": "0x60806040523480156200001157600080fd5b5060405162002c8138038062002c8183398181016040528101906200003791906200019f565b81818160009080519060200190620000519291906200007d565b5080600190805190602001906200006a9291906200007d565b5050506001600881905550505062000382565b8280546200008b90620002a7565b90600052602060002090601f016020900481019282620000af5760008555620000fb565b82601f10620000ca57805160ff1916838001178555620000fb565b82800160010185558215620000fb579182015b82811115620000fa578251825591602001919060010190620000dd565b5b5090506200010a91906200010e565b5090565b5b80821115620001295760008160009055506001016200010f565b5090565b6000620001446200013e846200023b565b62000212565b9050828152602081018484840111156200015d57600080fd5b6200016a84828562000271565b509392505050565b600082601f8301126200018457600080fd5b8151620001968482602086016200012d565b91505092915050565b60008060408385031215620001b357600080fd5b600083015167ffffffffffffffff811115620001ce57600080fd5b620001dc8582860162000172565b925050602083015167ffffffffffffffff811115620001fa57600080fd5b620002088582860162000172565b9150509250929050565b60006200021e62000231565b90506200022c8282620002dd565b919050565b6000604051905090565b600067ffffffffffffffff82111562000259576200025862000342565b5b620002648262000371565b9050602081019050919050565b60005b838110156200029157808201518184015260208101905062000274565b83811115620002a1576000848401525b50505050565b60006002820490506001821680620002c057607f821691505b60208210811415620002d757620002d662000313565b5b50919050565b620002e88262000371565b810181811067ffffffffffffffff821117156200030a576200030962000342565b5b80604052505050565b7f4e487b7100000000000000000000000000000000000000000000000000000000600052602260045260246000fd5b7f4e487b7100000000000000000000000000000000000000000000000000000000600052604160045260246000fd5b6000601f19601f8301169050919050565b6128ef80620003926000396000f3fe6080604052600436106100dd5760003560e01c806370a082311161007f578063a22cb46511610059578063a22cb465146102b0578063b88d4fde146102d9578063c87b56dd146102f5578063e985e9c514610332576100dd565b806370a0823114610218578063808506071461025557806395d89b4114610285576100dd565b8063095ea7b3116100bb578063095ea7b31461018757806323b872dd146101a357806342842e0e146101bf5780636352211e146101db576100dd565b806301ffc9a7146100e257806306fdde031461011f578063081812fc1461014a575b600080fd5b3480156100ee57600080fd5b5061010960048036038101906101049190611b81565b61036f565b6040516101169190611f34565b60405180910390f35b34801561012b57600080fd5b506101346104a9565b6040516101419190611f4f565b60405180910390f35b34801561015657600080fd5b50610171600480360381019061016c9190611bd3565b61053b565b60405161017e9190611ecd565b60405180910390f35b6101a1600480360381019061019c9190611b45565b61061a565b005b6101bd60048036038101906101b891906119eb565b6107b6565b005b6101d960048036038101906101d491906119eb565b61080f565b005b3480156101e757600080fd5b5061020260048036038101906101fd9190611bd3565b61082f565b60405161020f9190611ecd565b60405180910390f35b34801561022457600080fd5b5061023f600480360381019061023a9190611986565b61090e565b60405161024c9190612131565b60405180910390f35b61026f600480360381019061026a9190611af1565b6109c6565b60405161027c9190612131565b60405180910390f35b34801561029157600080fd5b5061029a610b18565b6040516102a79190611f4f565b60405180910390f35b3480156102bc57600080fd5b506102d760048036038101906102d29190611ab5565b610baa565b005b6102f360048036038101906102ee9190611a3a565b610d16565b005b34801561030157600080fd5b5061031c60048036038101906103179190611bd3565b610dbb565b6040516103299190611f4f565b60405180910390f35b34801561033e57600080fd5b50610359600480360381019061035491906119af565b610f03565b6040516103669190611f34565b60405180910390f35b60007f80ac58cd000000000000000000000000000000000000000000000000000000007bffffffffffffffffffffffffffffffffffffffffffffffffffffffff1916827bffffffffffffffffffffffffffffffffffffffffffffffffffffffff1916148061043a57507f5b5e139f000000000000000000000000000000000000000000000000000000007bffffffffffffffffffffffffffffffffffffffffffffffffffffffff1916827bffffffffffffffffffffffffffffffffffffffffffffffffffffffff1916145b806104a257507f01ffc9a7000000000000000000000000000000000000000000000000000000007bffffffffffffffffffffffffffffffffffffffffffffffffffffffff1916827bffffffffffffffffffffffffffffffffffffffffffffffffffffffff1916145b9050919050565b6060600080546104b890612356565b80601f01602080910402602001604051908101604052809291908181526020018280546104e490612356565b80156105315780601f1061050657610100808354040283529160200191610531565b820191906000526020600020905b81548152906001019060200180831161051457829003601f168201915b5050505050905090565b60008073ffffffffffffffffffffffffffffffffffffffff166002600084815260200190815260200160002060009054906101000a900473ffffffffffffffffffffffffffffffffffffffff1673ffffffffffffffffffffffffffffffffffffffff1614156105df576040517f08c379a00000000000000000000000000000000000000000000000000000000081526004016105d690612091565b60405180910390fd5b6004600083815260200190815260200160002060009054906101000a900473ffffffffffffffffffffffffffffffffffffffff169050919050565b60006106258261082f565b90508073ffffffffffffffffffffffffffffffffffffffff168373ffffffffffffffffffffffffffffffffffffffff161415610696576040517f08c379a000000000000000000000000000000000000000000000000000000000815260040161068d90612011565b60405180910390fd5b8073ffffffffffffffffffffffffffffffffffffffff163373ffffffffffffffffffffffffffffffffffffffff1614610704576040517f08c379a00000000000000000000000000000000000000000000000000000000081526004016106fb906120b1565b60405180910390fd5b826004600084815260200190815260200160002060006101000a81548173ffffffffffffffffffffffffffffffffffffffff021916908373ffffffffffffffffffffffffffffffffffffffff160217905550818373ffffffffffffffffffffffffffffffffffffffff168273ffffffffffffffffffffffffffffffffffffffff167f8c5be1e5ebec7d5bd14f71427d1e84f3dd0314c0f7b2291e5b200ac8c7c3b92560405160405180910390a4505050565b6107c03382610f97565b6107ff576040517f08c379a00000000000000000000000000000000000000000000000000000000081526004016107f690611fd1565b60405180910390fd5b61080a838383611172565b505050565b61082a83838360405180602001604052806000815250610d16565b505050565b60008073ffffffffffffffffffffffffffffffffffffffff166002600084815260200190815260200160002060009054906101000a900473ffffffffffffffffffffffffffffffffffffffff1673ffffffffffffffffffffffffffffffffffffffff1614156108d3576040517f08c379a00000000000000000000000000000000000000000000000000000000081526004016108ca90612031565b60405180910390fd5b6002600083815260200190815260200160002060009054906101000a900473ffffffffffffffffffffffffffffffffffffffff169050919050565b60008073ffffffffffffffffffffffffffffffffffffffff168273ffffffffffffffffffffffffffffffffffffffff16141561097f576040517f08c379a000000000000000000000000000000000000000000000000000000000815260040161097690612111565b60405180910390fd5b600360008373ffffffffffffffffffffffffffffffffffffffff1673ffffffffffffffffffffffffffffffffffffffff168152602001908152602001600020549050919050565b60008073ffffffffffffffffffffffffffffffffffffffff168373ffffffffffffffffffffffffffffffffffffffff161415610a37576040517f08c379a0000000000000000000000000000000000000000000000000000000008152600401610a2e90612051565b60405180910390fd5b6000600783604051610a499190611eb6565b90815260200160405180910390205414610a98576040517f08c379a0000000000000000000000000000000000000000000000000000000008152600401610a8f90611f71565b60405180910390fd5b60006008549050600160086000828254610ab29190612216565b92505081905550610ac3848261140b565b82600660008381526020019081526020016000209080519060200190610aea9291906117aa565b5080600784604051610afc9190611eb6565b9081526020016040518091039020819055508091505092915050565b606060018054610b2790612356565b80601f0160208091040260200160405190810160405280929190818152602001828054610b5390612356565b8015610ba05780601f10610b7557610100808354040283529160200191610ba0565b820191906000526020600020905b815481529060010190602001808311610b8357829003601f168201915b5050505050905090565b3373ffffffffffffffffffffffffffffffffffffffff168273ffffffffffffffffffffffffffffffffffffffff161415610c19576040517f08c379a0000000000000000000000000000000000000000000000000000000008152600401610c1090612011565b60405180910390fd5b80600560003373ffffffffffffffffffffffffffffffffffffffff1673ffffffffffffffffffffffffffffffffffffffff16815260200190815260200160002060008473ffffffffffffffffffffffffffffffffffffffff1673ffffffffffffffffffffffffffffffffffffffff16815260200190815260200160002060006101000a81548160ff0219169083151502179055508173ffffffffffffffffffffffffffffffffffffffff163373ffffffffffffffffffffffffffffffffffffffff167f17307eab39ab6107e8899845ad3d59bd9653f200f220920489ca2b5937696c3183604051610d0a9190611f34565b60405180910390a35050565b610d203383610f97565b610d5f576040517f08c379a0000000000000000000000000000000000000000000000000000000008152600401610d5690611fd1565b60405180910390fd5b610d6a848484611172565b610d7684848484611626565b610db5576040517f08c379a0000000000000000000000000000000000000000000000000000000008152600401610dac90612071565b60405180910390fd5b50505050565b6060600073ffffffffffffffffffffffffffffffffffffffff166002600084815260200190815260200160002060009054906101000a900473ffffffffffffffffffffffffffffffffffffffff1673ffffffffffffffffffffffffffffffffffffffff161415610e60576040517f08c379a0000000000000000000000000000000000000000000000000000000008152600401610e5790612091565b60405180910390fd5b600660008381526020019081526020016000208054610e7e90612356565b80601f0160208091040260200160405190810160405280929190818152602001828054610eaa90612356565b8015610ef75780601f10610ecc57610100808354040283529160200191610ef7565b820191906000526020600020905b815481529060010190602001808311610eda57829003601f168201915b50505050509050919050565b6000600560008473ffffffffffffffffffffffffffffffffffffffff1673ffffffffffffffffffffffffffffffffffffffff16815260200190815260200160002060008373ffffffffffffffffffffffffffffffffffffffff1673ffffffffffffffffffffffffffffffffffffffff16815260200190815260200160002060009054906101000a900460ff16905092915050565b6000806002600084815260200190815260200160002060009054906101000a900473ffffffffffffffffffffffffffffffffffffffff169050600073ffffffffffffffffffffffffffffffffffffffff168173ffffffffffffffffffffffffffffffffffffffff161415611040576040517f08c379a0000000000000000000000000000000000000000000000000000000008152600401611037906120f1565b60405180910390fd5b8373ffffffffffffffffffffffffffffffffffffffff168173ffffffffffffffffffffffffffffffffffffffff1614806110d857508373ffffffffffffffffffffffffffffffffffffffff166004600085815260200190815260200160002060009054906101000a900473ffffffffffffffffffffffffffffffffffffffff1673ffffffffffffffffffffffffffffffffffffffff16145b806111695750600560008273ffffffffffffffffffffffffffffffffffffffff1673ffffffffffffffffffffffffffffffffffffffff16815260200190815260200160002060008573ffffffffffffffffffffffffffffffffffffffff1673ffffffffffffffffffffffffffffffffffffffff16815260200190815260200160002060009054906101000a900460ff165b91505092915050565b8273ffffffffffffffffffffffffffffffffffffffff166111928261082f565b73ffffffffffffffffffffffffffffffffffffffff16146111e8576040517f08c379a00000000000000000000000000000000000000000000000000000000081526004016111df906120d1565b60405180910390fd5b600073ffffffffffffffffffffffffffffffffffffffff168273ffffffffffffffffffffffffffffffffffffffff161415611258576040517f08c379a000000000000000000000000000000000000000000000000000000000815260040161124f90611f91565b60405180910390fd5b60006004600083815260200190815260200160002060006101000a81548173ffffffffffffffffffffffffffffffffffffffff021916908373ffffffffffffffffffffffffffffffffffffffff1602179055506001600360008573ffffffffffffffffffffffffffffffffffffffff1673ffffffffffffffffffffffffffffffffffffffff16815260200190815260200160002060008282546112fb919061226c565b925050819055506001600360008473ffffffffffffffffffffffffffffffffffffffff1673ffffffffffffffffffffffffffffffffffffffff16815260200190815260200160002060008282546113529190612216565b92505081905550816002600083815260200190815260200160002060006101000a81548173ffffffffffffffffffffffffffffffffffffffff021916908373ffffffffffffffffffffffffffffffffffffffff160217905550808273ffffffffffffffffffffffffffffffffffffffff168473ffffffffffffffffffffffffffffffffffffffff167fddf252ad1be2c89b69c2b068fc378daa952ba7f163c4a11628f55a4df523b3ef60405160405180910390a4505050565b600073ffffffffffffffffffffffffffffffffffffffff168273ffffffffffffffffffffffffffffffffffffffff16141561147b576040517f08c379a000000000000000000000000000000000000000000000000000000000815260040161147290611f91565b60405180910390fd5b600073ffffffffffffffffffffffffffffffffffffffff166002600083815260200190815260200160002060009054906101000a900473ffffffffffffffffffffffffffffffffffffffff1673ffffffffffffffffffffffffffffffffffffffff161461151d576040517f08c379a000000000000000000000000000000000000000000000000000000000815260040161151490611ff1565b60405180910390fd5b6001600360008473ffffffffffffffffffffffffffffffffffffffff1673ffffffffffffffffffffffffffffffffffffffff168152602001908152602001600020600082825461156d9190612216565b92505081905550816002600083815260200190815260200160002060006101000a81548173ffffffffffffffffffffffffffffffffffffffff021916908373ffffffffffffffffffffffffffffffffffffffff160217905550808273ffffffffffffffffffffffffffffffffffffffff16600073ffffffffffffffffffffffffffffffffffffffff167fddf252ad1be2c89b69c2b068fc378daa952ba7f163c4a11628f55a4df523b3ef60405160405180910390a45050565b600080843b9050600081111561179c578473ffffffffffffffffffffffffffffffffffffffff1663150b7a02338887876040518563ffffffff1660e01b81526004016116759493929190611ee8565b602060405180830381600087803b15801561168f57600080fd5b505af19250505080156116c057506040513d601f19601f820116820180604052508101906116bd9190611baa565b60015b611743573d80600081146116f0576040519150601f19603f3d011682016040523d82523d6000602084013e6116f5565b606091505b5060008151141561173b576040517f08c379a000000000000000000000000000000000000000000000000000000000815260040161173290611fb1565b60405180910390fd5b805181602001fd5b63150b7a0260e01b7bffffffffffffffffffffffffffffffffffffffffffffffffffffffff1916817bffffffffffffffffffffffffffffffffffffffffffffffffffffffff19161461179a576000925050506117a2565b505b60019150505b949350505050565b8280546117b690612356565b90600052602060002090601f0160209004810192826117d8576000855561181f565b82601f106117f157805160ff191683800117855561181f565b8280016001018555821561181f579182015b8281111561181e578251825591602001919060010190611803565b5b50905061182c9190611830565b5090565b5b80821115611849576000816000905550600101611831565b5090565b600061186061185b84612171565b61214c565b90508281526020810184848401111561187857600080fd5b611883848285612314565b509392505050565b600061189e611899846121a2565b61214c565b9050828152602081018484840111156118b657600080fd5b6118c1848285612314565b509392505050565b6000813590506118d88161285d565b92915050565b6000813590506118ed81612874565b92915050565b6000813590506119028161288b565b92915050565b6000815190506119178161288b565b92915050565b600082601f83011261192e57600080fd5b813561193e84826020860161184d565b91505092915050565b600082601f83011261195857600080fd5b813561196884826020860161188b565b91505092915050565b600081359050611980816128a2565b92915050565b60006020828403121561199857600080fd5b60006119a6848285016118c9565b91505092915050565b600080604083850312156119c257600080fd5b60006119d0858286016118c9565b92505060206119e1858286016118c9565b9150509250929050565b600080600060608486031215611a0057600080fd5b6000611a0e868287016118c9565b9350506020611a1f868287016118c9565b9250506040611a3086828701611971565b9150509250925092565b60008060008060808587031215611a5057600080fd5b6000611a5e878288016118c9565b9450506020611a6f878288016118c9565b9350506040611a8087828801611971565b925050606085013567ffffffffffffffff811115611a9d57600080fd5b611aa98782880161191d565b91505092959194509250565b60008060408385031215611ac857600080fd5b6000611ad6858286016118c9565b9250506020611ae7858286016118de565b9150509250929050565b60008060408385031215611b0457600080fd5b6000611b12858286016118c9565b925050602083013567ffffffffffffffff811115611b2f57600080fd5b611b3b85828601611947565b9150509250929050565b60008060408385031215611b5857600080fd5b6000611b66858286016118c9565b9250506020611b7785828601611971565b9150509250929050565b600060208284031215611b9357600080fd5b6000611ba1848285016118f3565b91505092915050565b600060208284031215611bbc57600080fd5b6000611bca84828501611908565b91505092915050565b600060208284031215611be557600080fd5b6000611bf384828501611971565b91505092915050565b611c05816122a0565b82525050565b611c14816122b2565b82525050565b6000611c25826121d3565b611c2f81856121e9565b9350611c3f818560208601612323565b611c4881612446565b840191505092915050565b6000611c5e826121de565b611c6881856121fa565b9350611c78818560208601612323565b611c8181612446565b840191505092915050565b6000611c97826121de565b611ca1818561220b565b9350611cb1818560208601612323565b80840191505092915050565b6000611cca603e836121fa565b9150611cd582612457565b604082019050919050565b6000611ced6022836121fa565b9150611cf8826124a6565b604082019050919050565b6000611d106032836121fa565b9150611d1b826124f5565b604082019050919050565b6000611d336033836121fa565b9150611d3e82612544565b604082019050919050565b6000611d56601c836121fa565b9150611d6182612593565b602082019050919050565b6000611d796022836121fa565b9150611d84826125bc565b604082019050919050565b6000611d9c6029836121fa565b9150611da78261260b565b604082019050919050565b6000611dbf602d836121fa565b9150611dca8261265a565b604082019050919050565b6000611de2602f836121fa565b9150611ded826126a9565b604082019050919050565b6000611e056030836121fa565b9150611e10826126f8565b604082019050919050565b6000611e28601b836121fa565b9150611e3382612747565b602082019050919050565b6000611e4b602c836121fa565b9150611e5682612770565b604082019050919050565b6000611e6e6028836121fa565b9150611e79826127bf565b604082019050919050565b6000611e916026836121fa565b9150611e9c8261280e565b604082019050919050565b611eb08161230a565b82525050565b6000611ec28284611c8c565b915081905092915050565b6000602082019050611ee26000830184611bfc565b92915050565b6000608082019050611efd6000830187611bfc565b611f0a6020830186611bfc565b611f176040830185611ea7565b8181036060830152611f298184611c1a565b905095945050505050565b6000602082019050611f496000830184611c0b565b92915050565b60006020820190508181036000830152611f698184611c53565b905092915050565b60006020820190508181036000830152611f8a81611cbd565b9050919050565b60006020820190508181036000830152611faa81611ce0565b9050919050565b60006020820190508181036000830152611fca81611d03565b9050919050565b60006020820190508181036000830152611fea81611d26565b9050919050565b6000602082019050818103600083015261200a81611d49565b9050919050565b6000602082019050818103600083015261202a81611d6c565b9050919050565b6000602082019050818103600083015261204a81611d8f565b9050919050565b6000602082019050818103600083015261206a81611db2565b9050919050565b6000602082019050818103600083015261208a81611dd5565b9050919050565b600060208201905081810360008301526120aa81611df8565b9050919050565b600060208201905081810360008301526120ca81611e1b565b9050919050565b600060208201905081810360008301526120ea81611e3e565b9050919050565b6000602082019050818103600083015261210a81611e61565b9050919050565b6000602082019050818103600083015261212a81611e84565b9050919050565b60006020820190506121466000830184611ea7565b92915050565b6000612156612167565b90506121628282612388565b919050565b6000604051905090565b600067ffffffffffffffff82111561218c5761218b612417565b5b61219582612446565b9050602081019050919050565b600067ffffffffffffffff8211156121bd576121bc612417565b5b6121c682612446565b9050602081019050919050565b600081519050919050565b600081519050919050565b600082825260208201905092915050565b600082825260208201905092915050565b600081905092915050565b60006122218261230a565b915061222c8361230a565b9250827fffffffffffffffffffffffffffffffffffffffffffffffffffffffffffffffff03821115612261576122606123b9565b5b828201905092915050565b60006122778261230a565b91506122828361230a565b925082821015612295576122946123b9565b5b828203905092915050565b60006122ab826122ea565b9050919050565b60008115159050919050565b60007fffffffff0000000000000000000000000000000000000000000000000000000082169050919050565b600073ffffffffffffffffffffffffffffffffffffffff82169050919050565b6000819050919050565b82818337600083830152505050565b60005b83811015612341578082015181840152602081019050612326565b83811115612350576000848401525b50505050565b6000600282049050600182168061236e57607f821691505b60208210811415612382576123816123e8565b5b50919050565b61239182612446565b810181811067ffffffffffffffff821117156123b0576123af612417565b5b80604052505050565b7f4e487b7100000000000000000000000000000000000000000000000000000000600052601160045260246000fd5b7f4e487b7100000000000000000000000000000000000000000000000000000000600052602260045260246000fd5b7f4e487b7100000000000000000000000000000000000000000000000000000000600052604160045260246000fd5b6000601f19601f8301169050919050565b7f41646f707461626c65204e46543a20495046534861736820697320616c72656160008201527f6479207265676973746572656420746f20616e6f7468657220746f6b656e0000602082015250565b7f4552433732313a205472616e7366657220746f2061207a65726f20616464726560008201527f7373000000000000000000000000000000000000000000000000000000000000602082015250565b7f4552433732313a207472616e7366657220746f206e6f6e20455243373231526560008201527f63656976657220696d706c656d656e7465720000000000000000000000000000602082015250565b7f4552433732313a2043616c6c6572206973206e6f7420617070726f766564207460008201527f6f206d616e616765207468697320746f6b656e00000000000000000000000000602082015250565b7f4552433732313a20546f6b656e20616c72656164792065786973747300000000600082015250565b7f4552433732313a20417070726f76616c20746f206578697374696e67206f776e60008201527f6572000000000000000000000000000000000000000000000000000000000000602082015250565b7f4552433732313a206f776e657220717565727920666f72206e6f6e657869737460008201527f656e7420746f6b656e0000000000000000000000000000000000000000000000602082015250565b7f41646f707461626c65204e46543a2056656e6420617474656d707420746f206160008201527f207a65726f206164647265737300000000000000000000000000000000000000602082015250565b7f4552433732313a205472616e7366657220746f206e6f6e20455243373231526560008201527f63656976657220636f6e74726163740000000000000000000000000000000000602082015250565b7f4552433732314d657461646174613a202055524920717565727920666f72206e60008201527f6f6e6578697374656e7420746f6b656e00000000000000000000000000000000602082015250565b7f4552433732313a2063616c6c6572206973206e6f74206f776e65720000000000600082015250565b7f4552433732313a2046726f6d206164647265737320646f6573206e6f74206f7760008201527f6e207468697320746f6b656e0000000000000000000000000000000000000000602082015250565b7f4552433732313a202055524920717565727920666f72206e6f6e65786973746560008201527f6e7420746f6b656e000000000000000000000000000000000000000000000000602082015250565b7f4552433732313a2042616c616e636520717565727920666f72207a65726f206160008201527f6464726573730000000000000000000000000000000000000000000000000000602082015250565b612866816122a0565b811461287157600080fd5b50565b61287d816122b2565b811461288857600080fd5b50565b612894816122be565b811461289f57600080fd5b50565b6128ab8161230a565b81146128b657600080fd5b5056fea2646970667358221220a20c171017818ff111ddcd2922753aa71edd4eb2a5904521e8ddc2c3d28df1f464736f6c63430008030033",
  "immutableReferences": {},
  "source": "//SPDX-License-Identifier: MIT\n\npragma solidity ^0.8.2;\n\nimport './ERC721/ERC721.sol';\n\ncontract Adoptables is ERC721 {\n    uint256 private _tokenIdCounter;\n\n    constructor(string memory name, string memory symbol) ERC721(name, symbol) {\n        _tokenIdCounter = 1;\n    }\n\n    /*\n    * *  Minting (no ERC721 standards here)\n    * * *\n    * * * *\n    * * * * */\n\n    /*\n    *  @dev Vends a new Adoptable\n    */\n    function vend(address to, string memory IPFSAssetHash) public payable returns (uint256) {\n        require(to != address(0), \"Adoptable NFT: Vend attempt to a zero address\");\n        require(_registeredTokenURIs[IPFSAssetHash] == 0, \"Adoptable NFT: IPFSHash is already registered to another token\");\n\n        uint256 tokenId = _tokenIdCounter;\n        _tokenIdCounter += 1;\n\n        _mint(to, tokenId);\n        _tokenURIs[tokenId] = IPFSAssetHash;\n        _registeredTokenURIs[IPFSAssetHash] = tokenId;\n\n        return tokenId;\n    }\n}\n",
  "sourcePath": "/Users/adrian/Source/tako/contracts/Adoptables.sol",
  "compiler": {
    "name": "solc",
    "version": "0.8.3+commit.8d00100c.Emscripten.clang"
  },
  "schemaVersion": "3.3.4",
  "updatedAt": "2021-03-29T13:15:38.802Z",
  "devdoc": {
    "kind": "dev",
    "methods": {
      "supportsInterface(bytes4)": {
        "details": "Interface identification is specified in ERC-165. This function  uses less than 30,000 gas.",
        "params": {
          "interfaceID": "The interface identifier, as specified in ERC-165"
        },
        "returns": {
          "_0": "`true` if the contract implements `interfaceID` and  `interfaceID` is not 0xffffffff, `false` otherwise"
        }
      }
    },
    "version": 1
  },
  "userdoc": {
    "kind": "user",
    "methods": {
      "name()": {
        "notice": "A descriptive name for a collection of NFTs in this contract"
      },
      "supportsInterface(bytes4)": {
        "notice": "Query if a contract implements an interface"
      },
      "symbol()": {
        "notice": "An abbreviated name for NFTs in this contract"
      }
    },
    "version": 1
  }
}