{
  "contractName": "Auction",
  "abi": [
    {
      "anonymous": false,
      "inputs": [
        {
          "indexed": false,
          "internalType": "uint256",
          "name": "_timestamp",
          "type": "uint256"
        },
        {
          "indexed": true,
          "internalType": "address",
          "name": "_winner",
          "type": "address"
        },
        {
          "indexed": false,
          "internalType": "uint256",
          "name": "_winningBid",
          "type": "uint256"
        },
        {
          "indexed": false,
          "internalType": "bool",
          "name": "auctionWon",
          "type": "bool"
        }
      ],
      "name": "AuctionEnded",
      "type": "event"
    },
    {
      "anonymous": false,
      "inputs": [
        {
          "indexed": false,
          "internalType": "uint256",
          "name": "_timestamp",
          "type": "uint256"
        },
        {
          "indexed": true,
          "internalType": "address",
          "name": "_owner",
          "type": "address"
        }
      ],
      "name": "AuctionStarted",
      "type": "event"
    },
    {
      "anonymous": false,
      "inputs": [
        {
          "indexed": true,
          "internalType": "address",
          "name": "_from",
          "type": "address"
        },
        {
          "indexed": false,
          "internalType": "uint256",
          "name": "bid",
          "type": "uint256"
        }
      ],
      "name": "BidWithdrawn",
      "type": "event"
    },
    {
      "anonymous": false,
      "inputs": [
        {
          "indexed": true,
          "internalType": "address",
          "name": "_from",
          "type": "address"
        },
        {
          "indexed": false,
          "internalType": "uint256",
          "name": "bid",
          "type": "uint256"
        }
      ],
      "name": "NewBid",
      "type": "event"
    },
    {
      "inputs": [
        {
          "internalType": "address payable",
          "name": "_beneficiary",
          "type": "address"
        },
        {
          "internalType": "address payable",
          "name": "_feeTaker",
          "type": "address"
        },
        {
          "internalType": "uint256",
          "name": "_prize",
          "type": "uint256"
        },
        {
          "internalType": "uint256",
          "name": "_minimumBid",
          "type": "uint256"
        },
        {
          "internalType": "uint256",
          "name": "_feePercentage",
          "type": "uint256"
        },
        {
          "internalType": "uint256",
          "name": "_auctionTimeLimit",
          "type": "uint256"
        }
      ],
      "name": "initialise",
      "outputs": [],
      "stateMutability": "nonpayable",
      "type": "function"
    },
    {
      "inputs": [],
      "name": "claimPrize",
      "outputs": [
        {
          "internalType": "uint256",
          "name": "",
          "type": "uint256"
        }
      ],
      "stateMutability": "view",
      "type": "function"
    },
    {
      "inputs": [],
      "name": "settle",
      "outputs": [],
      "stateMutability": "nonpayable",
      "type": "function"
    },
    {
      "inputs": [],
      "name": "bid",
      "outputs": [],
      "stateMutability": "payable",
      "type": "function"
    },
    {
      "inputs": [],
      "name": "myBid",
      "outputs": [
        {
          "internalType": "uint256",
          "name": "",
          "type": "uint256"
        }
      ],
      "stateMutability": "view",
      "type": "function"
    },
    {
      "inputs": [],
      "name": "withdraw",
      "outputs": [],
      "stateMutability": "nonpayable",
      "type": "function"
    }
  ],
  "bytecode": "0x608060405234801561001057600080fd5b50611719806100206000396000f3fe6080604052600436106100555760003560e01c806311da60b41461005a5780631644548f146100715780631998aeef1461009c5780633ccfd60b146100a657806370740ac9146100bd578063a129e090146100e8575b600080fd5b34801561006657600080fd5b5061006f610111565b005b34801561007d57600080fd5b50610086610571565b60405161009391906112b4565b60405180910390f35b6100a46105bb565b005b3480156100b257600080fd5b506100bb6109be565b005b3480156100c957600080fd5b506100d2610d21565b6040516100df91906112b4565b60405180910390f35b3480156100f457600080fd5b5061010f600480360381019061010a9190610fb2565b610e00565b005b60001515600360009054906101000a900460ff16151514610167576040517f08c379a000000000000000000000000000000000000000000000000000000000815260040161015e906111f4565b60405180910390fd5b6002544210156101ac576040517f08c379a00000000000000000000000000000000000000000000000000000000081526004016101a390611234565b60405180910390fd5b6001600360006101000a81548160ff021916908315150217905550600073ffffffffffffffffffffffffffffffffffffffff16600960009054906101000a900473ffffffffffffffffffffffffffffffffffffffff1673ffffffffffffffffffffffffffffffffffffffff161415801561028a57506000600b6000600960009054906101000a900473ffffffffffffffffffffffffffffffffffffffff1673ffffffffffffffffffffffffffffffffffffffff1673ffffffffffffffffffffffffffffffffffffffff16815260200190815260200160002060010154115b15610486576001600360016101000a81548160ff021916908315150217905550600660009054906101000a900473ffffffffffffffffffffffffffffffffffffffff1673ffffffffffffffffffffffffffffffffffffffff166108fc6127106005546127106102f991906113f8565b600b6000600960009054906101000a900473ffffffffffffffffffffffffffffffffffffffff1673ffffffffffffffffffffffffffffffffffffffff1673ffffffffffffffffffffffffffffffffffffffff16815260200190815260200160002060010154610368919061139e565b610372919061136d565b9081150290604051600060405180830381858888f1935050505015801561039d573d6000803e3d6000fd5b50600760009054906101000a900473ffffffffffffffffffffffffffffffffffffffff1673ffffffffffffffffffffffffffffffffffffffff166108fc612710600554600b6000600960009054906101000a900473ffffffffffffffffffffffffffffffffffffffff1673ffffffffffffffffffffffffffffffffffffffff1673ffffffffffffffffffffffffffffffffffffffff1681526020019081526020016000206001015461044f919061139e565b610459919061136d565b9081150290604051600060405180830381858888f19350505050158015610484573d6000803e3d6000fd5b505b600960009054906101000a900473ffffffffffffffffffffffffffffffffffffffff1673ffffffffffffffffffffffffffffffffffffffff167f743c73b6b5b2507218f0edf78a2c978eb14bd37e0da21cd28b9af089032de1a6600254600b6000600960009054906101000a900473ffffffffffffffffffffffffffffffffffffffff1673ffffffffffffffffffffffffffffffffffffffff1673ffffffffffffffffffffffffffffffffffffffff16815260200190815260200160002060010154600360019054906101000a900460ff16604051610567939291906112cf565b60405180910390a2565b6000600b60003373ffffffffffffffffffffffffffffffffffffffff1673ffffffffffffffffffffffffffffffffffffffff16815260200190815260200160002060010154905090565b60025442106105ff576040517f08c379a00000000000000000000000000000000000000000000000000000000081526004016105f6906111b4565b60405180910390fd5b600960009054906101000a900473ffffffffffffffffffffffffffffffffffffffff1673ffffffffffffffffffffffffffffffffffffffff163373ffffffffffffffffffffffffffffffffffffffff161415610690576040517f08c379a0000000000000000000000000000000000000000000000000000000008152600401610687906111d4565b60405180910390fd5b6000600b60003373ffffffffffffffffffffffffffffffffffffffff1673ffffffffffffffffffffffffffffffffffffffff1681526020019081526020016000206001015414610715576040517f08c379a000000000000000000000000000000000000000000000000000000000815260040161070c90611274565b60405180910390fd5b60003411801561072757506004543410155b610766576040517f08c379a000000000000000000000000000000000000000000000000000000000815260040161075d90611214565b60405180910390fd5b600b6000600960009054906101000a900473ffffffffffffffffffffffffffffffffffffffff1673ffffffffffffffffffffffffffffffffffffffff1673ffffffffffffffffffffffffffffffffffffffff16815260200190815260200160002060010154341161080c576040517f08c379a000000000000000000000000000000000000000000000000000000000815260040161080390611194565b60405180910390fd5b60405180604001604052803373ffffffffffffffffffffffffffffffffffffffff16815260200134815250600b60003373ffffffffffffffffffffffffffffffffffffffff1673ffffffffffffffffffffffffffffffffffffffff16815260200190815260200160002060008201518160000160006101000a81548173ffffffffffffffffffffffffffffffffffffffff021916908373ffffffffffffffffffffffffffffffffffffffff16021790555060208201518160010155905050600960009054906101000a900473ffffffffffffffffffffffffffffffffffffffff16600a60006101000a81548173ffffffffffffffffffffffffffffffffffffffff021916908373ffffffffffffffffffffffffffffffffffffffff16021790555033600960006101000a81548173ffffffffffffffffffffffffffffffffffffffff021916908373ffffffffffffffffffffffffffffffffffffffff1602179055503373ffffffffffffffffffffffffffffffffffffffff167fdd0b6c6a77960e2066c96171b4d7ac9e8b4c184011f38544afa36a5bb63ec59f346040516109b491906112b4565b60405180910390a2565b6000600b60003373ffffffffffffffffffffffffffffffffffffffff1673ffffffffffffffffffffffffffffffffffffffff1681526020019081526020016000206001015411610a43576040517f08c379a0000000000000000000000000000000000000000000000000000000008152600401610a3a90611254565b60405180910390fd5b6000600b60003373ffffffffffffffffffffffffffffffffffffffff1673ffffffffffffffffffffffffffffffffffffffff1681526020019081526020016000206001015490506000600b60003373ffffffffffffffffffffffffffffffffffffffff1673ffffffffffffffffffffffffffffffffffffffff168152602001908152602001600020600101819055503373ffffffffffffffffffffffffffffffffffffffff166108fc829081150290604051600060405180830381858888f19350505050158015610b18573d6000803e3d6000fd5b503373ffffffffffffffffffffffffffffffffffffffff16600960009054906101000a900473ffffffffffffffffffffffffffffffffffffffff1673ffffffffffffffffffffffffffffffffffffffff161415610bb2576000600960006101000a81548173ffffffffffffffffffffffffffffffffffffffff021916908373ffffffffffffffffffffffffffffffffffffffff1602179055505b600073ffffffffffffffffffffffffffffffffffffffff16600a60009054906101000a900473ffffffffffffffffffffffffffffffffffffffff1673ffffffffffffffffffffffffffffffffffffffff1614610c6c57600a60009054906101000a900473ffffffffffffffffffffffffffffffffffffffff16600960006101000a81548173ffffffffffffffffffffffffffffffffffffffff021916908373ffffffffffffffffffffffffffffffffffffffff1602179055505b3373ffffffffffffffffffffffffffffffffffffffff167f03f0427e8bcfdf5f69217150cf160ebe2dac5fa607336fd7643bfd61a9019080600b6000600960009054906101000a900473ffffffffffffffffffffffffffffffffffffffff1673ffffffffffffffffffffffffffffffffffffffff1673ffffffffffffffffffffffffffffffffffffffff16815260200190815260200160002060010154604051610d1691906112b4565b60405180910390a250565b6000600254421015610d68576040517f08c379a0000000000000000000000000000000000000000000000000000000008152600401610d5f90611234565b60405180910390fd5b600960009054906101000a900473ffffffffffffffffffffffffffffffffffffffff1673ffffffffffffffffffffffffffffffffffffffff163373ffffffffffffffffffffffffffffffffffffffff1614610df8576040517f08c379a0000000000000000000000000000000000000000000000000000000008152600401610def90611294565b60405180910390fd5b600054905090565b33600860006101000a81548173ffffffffffffffffffffffffffffffffffffffff021916908373ffffffffffffffffffffffffffffffffffffffff16021790555085600660006101000a81548173ffffffffffffffffffffffffffffffffffffffff021916908373ffffffffffffffffffffffffffffffffffffffff16021790555084600760006101000a81548173ffffffffffffffffffffffffffffffffffffffff021916908373ffffffffffffffffffffffffffffffffffffffff16021790555081600581905550836000819055504260018190555080600154610ee69190611317565b6002819055506000600360006101000a81548160ff02191690831515021790555082600481905550600860009054906101000a900473ffffffffffffffffffffffffffffffffffffffff1673ffffffffffffffffffffffffffffffffffffffff167f16da476d7265fc95576888b93de4fa4849d6cea1228235887f569c6530ddfec1600154604051610f7891906112b4565b60405180910390a2505050505050565b600081359050610f97816116b5565b92915050565b600081359050610fac816116cc565b92915050565b60008060008060008060c08789031215610fcb57600080fd5b6000610fd989828a01610f88565b9650506020610fea89828a01610f88565b9550506040610ffb89828a01610f9d565b945050606061100c89828a01610f9d565b935050608061101d89828a01610f9d565b92505060a061102e89828a01610f9d565b9150509295509295509295565b6110448161143e565b82525050565b6000611057602d83611306565b9150611062826114d2565b604082019050919050565b600061107a601583611306565b915061108582611521565b602082019050919050565b600061109d602283611306565b91506110a88261154a565b604082019050919050565b60006110c0601783611306565b91506110cb82611599565b602082019050919050565b60006110e3601c83611306565b91506110ee826115c2565b602082019050919050565b6000611106601583611306565b9150611111826115eb565b602082019050919050565b6000611129601483611306565b915061113482611614565b602082019050919050565b600061114c603c83611306565b91506111578261163d565b604082019050919050565b600061116f601b83611306565b915061117a8261168c565b602082019050919050565b61118e8161146a565b82525050565b600060208201905081810360008301526111ad8161104a565b9050919050565b600060208201905081810360008301526111cd8161106d565b9050919050565b600060208201905081810360008301526111ed81611090565b9050919050565b6000602082019050818103600083015261120d816110b3565b9050919050565b6000602082019050818103600083015261122d816110d6565b9050919050565b6000602082019050818103600083015261124d816110f9565b9050919050565b6000602082019050818103600083015261126d8161111c565b9050919050565b6000602082019050818103600083015261128d8161113f565b9050919050565b600060208201905081810360008301526112ad81611162565b9050919050565b60006020820190506112c96000830184611185565b92915050565b60006060820190506112e46000830186611185565b6112f16020830185611185565b6112fe604083018461103b565b949350505050565b600082825260208201905092915050565b60006113228261146a565b915061132d8361146a565b9250827fffffffffffffffffffffffffffffffffffffffffffffffffffffffffffffffff0382111561136257611361611474565b5b828201905092915050565b60006113788261146a565b91506113838361146a565b925082611393576113926114a3565b5b828204905092915050565b60006113a98261146a565b91506113b48361146a565b9250817fffffffffffffffffffffffffffffffffffffffffffffffffffffffffffffffff04831182151516156113ed576113ec611474565b5b828202905092915050565b60006114038261146a565b915061140e8361146a565b92508282101561142157611420611474565b5b828203905092915050565b60006114378261144a565b9050919050565b60008115159050919050565b600073ffffffffffffffffffffffffffffffffffffffff82169050919050565b6000819050919050565b7f4e487b7100000000000000000000000000000000000000000000000000000000600052601160045260246000fd5b7f4e487b7100000000000000000000000000000000000000000000000000000000600052601260045260246000fd5b7f42696420616d6f756e7420746f6f206c6f7720746f206265617420746865206360008201527f757272656e742062696464657200000000000000000000000000000000000000602082015250565b7f41756374696f6e20616c726561647920656e6465640000000000000000000000600082015250565b7f596f752061726520616c7265616479207468652068696768657374206269646460008201527f6572000000000000000000000000000000000000000000000000000000000000602082015250565b7f41756374696f6e20616c726561647920736574746c6564000000000000000000600082015250565b7f42656c6f7720746865206d696e696d756d2062696420616d6f756e7400000000600082015250565b7f41756374696f6e206e6f742079657420656e6465640000000000000000000000600082015250565b7f596f752068617665206e6f206f70656e20626964000000000000000000000000600082015250565b7f506c6561736520776974686472617720796f75722070726576696f757320626960008201527f64206265666f726520747279696e6720746f2062696720616761696e00000000602082015250565b7f596f7520646964206e6f742077696e207468652061756374696f6e0000000000600082015250565b6116be8161142c565b81146116c957600080fd5b50565b6116d58161146a565b81146116e057600080fd5b5056fea2646970667358221220579bf4927bf7a2f4330f38f42d95c8a186908017b953c3ec01e4bea27ef5f93164736f6c63430008020033",
  "immutableReferences": {},
  "source": "//SPDX-License-Identifier: MIT\n\npragma solidity ^0.8.2;\n\ncontract Auction {\n    uint prize;\n    uint auctionCreated;\n    uint auctionEnds;\n    bool auctionSettled;\n    bool auctionWon;\n    uint minimumBid;\n    uint fee;\n\n    struct Bid {\n        address bidder;\n        uint bid;\n    }\n\n    address payable beneficiary;\n    address payable feeTaker;\n    address owner;\n    address highestBidder;\n    address previousHighestBidder;\n\n    event BidWithdrawn (address indexed _from, uint bid);\n    event NewBid (address indexed _from, uint bid);\n    event AuctionStarted (uint _timestamp, address indexed _owner);\n    event AuctionEnded (uint _timestamp, address indexed _winner, uint _winningBid, bool auctionWon);\n\n    mapping(address => Bid) bidLedger;\n\n    function initialise(\n        address payable _beneficiary, \n        address payable _feeTaker,\n        uint _prize, \n        uint _minimumBid,\n        uint _feePercentage, \n        uint _auctionTimeLimit) public {\n\n        owner = msg.sender;\n        beneficiary = _beneficiary; \n        feeTaker = _feeTaker; \n\n        fee = _feePercentage;\n        prize = _prize;\n\n        auctionCreated = block.timestamp;\n        auctionEnds = auctionCreated + _auctionTimeLimit;\n        auctionSettled = false;\n        minimumBid = _minimumBid;\n\n        emit AuctionStarted(auctionCreated, owner);\n    }\n\n    function claimPrize() public view returns (uint) {\n        require (\n            block.timestamp >= auctionEnds,\n            \"Auction not yet ended\");\n\n        require (\n            msg.sender == highestBidder,\n            \"You did not win the auction\");\n\n        return prize;\n    }\n\n    function settle() public {\n        require (\n            auctionSettled == false,\n            \"Auction already settled\");\n\n        require (\n            block.timestamp >= auctionEnds,\n            \"Auction not yet ended\");\n\n        auctionSettled = true;\n\n        // Warning: What if this fails?\n        //\n        if (highestBidder != address(0) && bidLedger[highestBidder].bid > 0) {\n            auctionWon = true;\n\n            beneficiary.transfer((bidLedger[highestBidder].bid * (10000-fee)) / 10000);\n            feeTaker.transfer((bidLedger[highestBidder].bid * fee) / 10000);\n        }\n\n        emit AuctionEnded(auctionEnds, highestBidder, bidLedger[highestBidder].bid, auctionWon);\n    }\n\n    function bid() public payable {\n        require (\n            block.timestamp < auctionEnds,\n            \"Auction already ended\");\n\n        require (\n            msg.sender != highestBidder,\n            \"You are already the highest bidder\");\n\n        require (\n            bidLedger[msg.sender].bid == 0,\n            \"Please withdraw your previous bid before trying to big again\");\n\n        require (\n            msg.value > 0 && msg.value >= minimumBid,\n            \"Below the minimum bid amount\");\n\n        require (\n            msg.value > bidLedger[highestBidder].bid,\n            \"Bid amount too low to beat the current bidder\");\n\n        // Successful bidder in town\n        //\n        bidLedger[msg.sender] = Bid(msg.sender, msg.value);\n        previousHighestBidder = highestBidder;\n        highestBidder = msg.sender;\n\n        emit NewBid(msg.sender, msg.value);\n    }\n\n    function myBid() public view returns(uint) {\n        return bidLedger[msg.sender].bid;\n    }\n\n    function withdraw() public {\n        require(\n            bidLedger[msg.sender].bid > 0,\n            \"You have no open bid\");\n\n        // Remove their bid so they can't withdraw from the contract again\n        // before the actual transfer takes place\n        //\n        uint amount = bidLedger[msg.sender].bid;\n        bidLedger[msg.sender].bid = 0;\n\n        // Refund\n        //\n        payable(msg.sender).transfer(amount);\n\n        if (highestBidder == msg.sender)\n            highestBidder = address(0);\n\n        // Warning: Will break if the previous bidder already withdrew their bid\n        //\n        if (previousHighestBidder != address(0))\n            highestBidder = previousHighestBidder;\n\n        emit BidWithdrawn(msg.sender, bidLedger[highestBidder].bid);\n    }\n}",
  "sourcePath": "/home/adrian/src/tako/contracts/Auction.sol",
  "compiler": {
    "name": "solc",
    "version": "0.8.2+commit.661d1103.Emscripten.clang"
  },
  "schemaVersion": "3.3.4",
  "updatedAt": "2021-03-15T07:56:31.462Z",
  "devdoc": {
    "kind": "dev",
    "methods": {},
    "version": 1
  },
  "userdoc": {
    "kind": "user",
    "methods": {},
    "version": 1
  }
}